{
  "fileName": "ERC1155Mintable.sol",
  "contractName": "ERC1155Mintable",
  "source": "pragma solidity ^0.5.0;\n\nimport \"./ERC1155.sol\";\n\n/**\n    @dev Mintable form of ERC1155\n    Shows how easy it is to mint new items.\n*/\ncontract ERC1155Mintable is ERC1155 {\n\n    bytes4 constant private INTERFACE_SIGNATURE_URI = 0x0e89341c;\n\n    // id => creators\n    mapping (uint256 => address) public creators;\n\n    // A nonce to ensure we have a unique id each time we mint.\n    uint256 public nonce;\n\n    modifier creatorOnly(uint256 _id) {\n        require(creators[_id] == msg.sender);\n        _;\n    }\n\n    function supportsInterface(bytes4 _interfaceId)\n    public\n    view\n    returns (bool) {\n        if (_interfaceId == INTERFACE_SIGNATURE_URI) {\n            return true;\n        } else {\n            return super.supportsInterface(_interfaceId);\n        }\n    }\n\n    // Creates a new token type and assings _initialSupply to minter\n    function create(uint256 _initialSupply, string calldata _uri) external returns(uint256 _id) {\n\n        _id = ++nonce;\n        creators[_id] = msg.sender;\n        balances[_id][msg.sender] = _initialSupply;\n\n        // Transfer event with mint semantic\n        emit TransferSingle(msg.sender, address(0x0), msg.sender, _id, _initialSupply);\n\n        if (bytes(_uri).length > 0)\n            emit URI(_uri, _id);\n    }\n\n    // Batch mint tokens. Assign directly to _to[].\n    function mint(uint256 _id, address[] calldata _to, uint256[] calldata _quantities) external creatorOnly(_id) {\n\n        for (uint256 i = 0; i < _to.length; ++i) {\n\n            address to = _to[i];\n            uint256 quantity = _quantities[i];\n\n            // Grant the items to the caller\n            balances[_id][to] = quantity.add(balances[_id][to]);\n\n            // Emit the Transfer/Mint event.\n            // the 0x0 source address implies a mint\n            // It will also provide the circulating supply info.\n            emit TransferSingle(msg.sender, address(0x0), to, _id, quantity);\n\n            if (to.isContract()) {\n                _doSafeTransferAcceptanceCheck(msg.sender, msg.sender, to, _id, quantity, '');\n            }\n        }\n    }\n\n    function setURI(string calldata _uri, uint256 _id) external creatorOnly(_id) {\n        emit URI(_uri, _id);\n    }\n}\n",
  "sourcePath": "contracts/ERC1155Mintable.sol",
  "abi": [
    {
      "anonymous": false,
      "inputs": [
        {
          "indexed": true,
          "internalType": "address",
          "name": "_owner",
          "type": "address"
        },
        {
          "indexed": true,
          "internalType": "address",
          "name": "_operator",
          "type": "address"
        },
        {
          "indexed": false,
          "internalType": "bool",
          "name": "_approved",
          "type": "bool"
        }
      ],
      "name": "ApprovalForAll",
      "type": "event"
    },
    {
      "anonymous": false,
      "inputs": [
        {
          "indexed": true,
          "internalType": "address",
          "name": "_operator",
          "type": "address"
        },
        {
          "indexed": true,
          "internalType": "address",
          "name": "_from",
          "type": "address"
        },
        {
          "indexed": true,
          "internalType": "address",
          "name": "_to",
          "type": "address"
        },
        {
          "indexed": false,
          "internalType": "uint256[]",
          "name": "_ids",
          "type": "uint256[]"
        },
        {
          "indexed": false,
          "internalType": "uint256[]",
          "name": "_values",
          "type": "uint256[]"
        }
      ],
      "name": "TransferBatch",
      "type": "event"
    },
    {
      "anonymous": false,
      "inputs": [
        {
          "indexed": true,
          "internalType": "address",
          "name": "_operator",
          "type": "address"
        },
        {
          "indexed": true,
          "internalType": "address",
          "name": "_from",
          "type": "address"
        },
        {
          "indexed": true,
          "internalType": "address",
          "name": "_to",
          "type": "address"
        },
        {
          "indexed": false,
          "internalType": "uint256",
          "name": "_id",
          "type": "uint256"
        },
        {
          "indexed": false,
          "internalType": "uint256",
          "name": "_value",
          "type": "uint256"
        }
      ],
      "name": "TransferSingle",
      "type": "event"
    },
    {
      "anonymous": false,
      "inputs": [
        {
          "indexed": false,
          "internalType": "string",
          "name": "_value",
          "type": "string"
        },
        {
          "indexed": true,
          "internalType": "uint256",
          "name": "_id",
          "type": "uint256"
        }
      ],
      "name": "URI",
      "type": "event"
    },
    {
      "constant": true,
      "inputs": [
        {
          "internalType": "address",
          "name": "_owner",
          "type": "address"
        },
        {
          "internalType": "uint256",
          "name": "_id",
          "type": "uint256"
        }
      ],
      "name": "balanceOf",
      "outputs": [
        {
          "internalType": "uint256",
          "name": "",
          "type": "uint256"
        }
      ],
      "payable": false,
      "stateMutability": "view",
      "type": "function"
    },
    {
      "constant": true,
      "inputs": [
        {
          "internalType": "address[]",
          "name": "_owners",
          "type": "address[]"
        },
        {
          "internalType": "uint256[]",
          "name": "_ids",
          "type": "uint256[]"
        }
      ],
      "name": "balanceOfBatch",
      "outputs": [
        {
          "internalType": "uint256[]",
          "name": "",
          "type": "uint256[]"
        }
      ],
      "payable": false,
      "stateMutability": "view",
      "type": "function"
    },
    {
      "constant": false,
      "inputs": [
        {
          "internalType": "uint256",
          "name": "_initialSupply",
          "type": "uint256"
        },
        {
          "internalType": "string",
          "name": "_uri",
          "type": "string"
        }
      ],
      "name": "create",
      "outputs": [
        {
          "internalType": "uint256",
          "name": "_id",
          "type": "uint256"
        }
      ],
      "payable": false,
      "stateMutability": "nonpayable",
      "type": "function"
    },
    {
      "constant": true,
      "inputs": [
        {
          "internalType": "uint256",
          "name": "",
          "type": "uint256"
        }
      ],
      "name": "creators",
      "outputs": [
        {
          "internalType": "address",
          "name": "",
          "type": "address"
        }
      ],
      "payable": false,
      "stateMutability": "view",
      "type": "function"
    },
    {
      "constant": true,
      "inputs": [
        {
          "internalType": "address",
          "name": "_owner",
          "type": "address"
        },
        {
          "internalType": "address",
          "name": "_operator",
          "type": "address"
        }
      ],
      "name": "isApprovedForAll",
      "outputs": [
        {
          "internalType": "bool",
          "name": "",
          "type": "bool"
        }
      ],
      "payable": false,
      "stateMutability": "view",
      "type": "function"
    },
    {
      "constant": false,
      "inputs": [
        {
          "internalType": "uint256",
          "name": "_id",
          "type": "uint256"
        },
        {
          "internalType": "address[]",
          "name": "_to",
          "type": "address[]"
        },
        {
          "internalType": "uint256[]",
          "name": "_quantities",
          "type": "uint256[]"
        }
      ],
      "name": "mint",
      "outputs": [],
      "payable": false,
      "stateMutability": "nonpayable",
      "type": "function"
    },
    {
      "constant": true,
      "inputs": [],
      "name": "nonce",
      "outputs": [
        {
          "internalType": "uint256",
          "name": "",
          "type": "uint256"
        }
      ],
      "payable": false,
      "stateMutability": "view",
      "type": "function"
    },
    {
      "constant": false,
      "inputs": [
        {
          "internalType": "address",
          "name": "_from",
          "type": "address"
        },
        {
          "internalType": "address",
          "name": "_to",
          "type": "address"
        },
        {
          "internalType": "uint256[]",
          "name": "_ids",
          "type": "uint256[]"
        },
        {
          "internalType": "uint256[]",
          "name": "_values",
          "type": "uint256[]"
        },
        {
          "internalType": "bytes",
          "name": "_data",
          "type": "bytes"
        }
      ],
      "name": "safeBatchTransferFrom",
      "outputs": [],
      "payable": false,
      "stateMutability": "nonpayable",
      "type": "function"
    },
    {
      "constant": false,
      "inputs": [
        {
          "internalType": "address",
          "name": "_from",
          "type": "address"
        },
        {
          "internalType": "address",
          "name": "_to",
          "type": "address"
        },
        {
          "internalType": "uint256",
          "name": "_id",
          "type": "uint256"
        },
        {
          "internalType": "uint256",
          "name": "_value",
          "type": "uint256"
        },
        {
          "internalType": "bytes",
          "name": "_data",
          "type": "bytes"
        }
      ],
      "name": "safeTransferFrom",
      "outputs": [],
      "payable": false,
      "stateMutability": "nonpayable",
      "type": "function"
    },
    {
      "constant": false,
      "inputs": [
        {
          "internalType": "address",
          "name": "_operator",
          "type": "address"
        },
        {
          "internalType": "bool",
          "name": "_approved",
          "type": "bool"
        }
      ],
      "name": "setApprovalForAll",
      "outputs": [],
      "payable": false,
      "stateMutability": "nonpayable",
      "type": "function"
    },
    {
      "constant": false,
      "inputs": [
        {
          "internalType": "string",
          "name": "_uri",
          "type": "string"
        },
        {
          "internalType": "uint256",
          "name": "_id",
          "type": "uint256"
        }
      ],
      "name": "setURI",
      "outputs": [],
      "payable": false,
      "stateMutability": "nonpayable",
      "type": "function"
    },
    {
      "constant": true,
      "inputs": [
        {
          "internalType": "bytes4",
          "name": "_interfaceId",
          "type": "bytes4"
        }
      ],
      "name": "supportsInterface",
      "outputs": [
        {
          "internalType": "bool",
          "name": "",
          "type": "bool"
        }
      ],
      "payable": false,
      "stateMutability": "view",
      "type": "function"
    }
  ],
  "bytecode": "0x608060405234801561001057600080fd5b50611572806100206000396000f3fe608060405234801561001057600080fd5b50600436106100b35760003560e01c8063a22cb46511610071578063a22cb4651461044b578063affed0e014610479578063cd53d08e14610481578063cfa84fc1146104ba578063e985e9c51461057f578063f242432a146105ad576100b3565b8062fdd58e146100b85780630118fa49146100f657806301ffc9a71461016b5780632eb2c2d6146101a65780634e1273f4146102cf57806367db3b8f146103dd575b600080fd5b6100e4600480360360408110156100ce57600080fd5b506001600160a01b038135169060200135610640565b60408051918252519081900360200190f35b6100e46004803603604081101561010c57600080fd5b81359190810190604081016020820135600160201b81111561012d57600080fd5b82018360208201111561013f57600080fd5b803590602001918460018302840111600160201b8311171561016057600080fd5b509092509050610665565b6101926004803603602081101561018157600080fd5b50356001600160e01b03191661074f565b604080519115158252519081900360200190f35b6102cd600480360360a08110156101bc57600080fd5b6001600160a01b038235811692602081013590911691810190606081016040820135600160201b8111156101ef57600080fd5b82018360208201111561020157600080fd5b803590602001918460208302840111600160201b8311171561022257600080fd5b919390929091602081019035600160201b81111561023f57600080fd5b82018360208201111561025157600080fd5b803590602001918460208302840111600160201b8311171561027257600080fd5b919390929091602081019035600160201b81111561028f57600080fd5b8201836020820111156102a157600080fd5b803590602001918460018302840111600160201b831117156102c257600080fd5b509092509050610783565b005b61038d600480360360408110156102e557600080fd5b810190602081018135600160201b8111156102ff57600080fd5b82018360208201111561031157600080fd5b803590602001918460208302840111600160201b8311171561033257600080fd5b919390929091602081019035600160201b81111561034f57600080fd5b82018360208201111561036157600080fd5b803590602001918460208302840111600160201b8311171561038257600080fd5b509092509050610b26565b60408051602080825283518183015283519192839290830191858101910280838360005b838110156103c95781810151838201526020016103b1565b505050509050019250505060405180910390f35b6102cd600480360360408110156103f357600080fd5b810190602081018135600160201b81111561040d57600080fd5b82018360208201111561041f57600080fd5b803590602001918460018302840111600160201b8311171561044057600080fd5b919350915035610bfa565b6102cd6004803603604081101561046157600080fd5b506001600160a01b0381351690602001351515610c86565b6100e4610cf4565b61049e6004803603602081101561049757600080fd5b5035610cfa565b604080516001600160a01b039092168252519081900360200190f35b6102cd600480360360608110156104d057600080fd5b81359190810190604081016020820135600160201b8111156104f157600080fd5b82018360208201111561050357600080fd5b803590602001918460208302840111600160201b8311171561052457600080fd5b919390929091602081019035600160201b81111561054157600080fd5b82018360208201111561055357600080fd5b803590602001918460208302840111600160201b8311171561057457600080fd5b509092509050610d15565b6101926004803603604081101561059557600080fd5b506001600160a01b0381358116916020013516610e54565b6102cd600480360360a08110156105c357600080fd5b6001600160a01b03823581169260208101359091169160408201359160608101359181019060a081016080820135600160201b81111561060257600080fd5b82018360208201111561061457600080fd5b803590602001918460018302840111600160201b8311171561063557600080fd5b509092509050610e82565b6000908152602081815260408083206001600160a01b03949094168352929052205490565b6003805460010190819055600081815260026020908152604080832080546001600160a01b0319163390811790915583835281842081855283528184208890558151858152928301889052815190939284927fc3d58168c5ae7397731d063d5bbf3d657854427343f4c083240f7aacaa2d0f6292918290030190a4811561074857807f6bb7ff708619ba0610cba295a58592e0451dee2622938c8755667688daf3529b848460405180806020018281038252848482818152602001925080828437600083820152604051601f909101601f19169092018290039550909350505050a25b9392505050565b60006001600160e01b031982166303a24d0760e21b14156107725750600161077e565b61077b8261107c565b90505b919050565b6001600160a01b0387166107c85760405162461bcd60e51b815260040180806020018281038252602581526020018061144a6025913960400191505060405180910390fd5b8483146108065760405162461bcd60e51b81526004018080602001828103825260298152602001806114dc6029913960400191505060405180910390fd5b6001600160a01b03881633148061084457506001600160a01b03881660009081526001602081815260408084203385529091529091205460ff161515145b61087f5760405162461bcd60e51b815260040180806020018281038252602f81526020018061146f602f913960400191505060405180910390fd5b60005b858110156109af57600087878381811061089857fe5b90506020020135905060008686848181106108af57fe5b9050602002013590506109008160008085815260200190815260200160002060008e6001600160a01b03166001600160a01b03168152602001908152602001600020546110c290919063ffffffff16565b60008084815260200190815260200160002060008d6001600160a01b03166001600160a01b031681526020019081526020016000208190555061098160008084815260200190815260200160002060008c6001600160a01b03166001600160a01b0316815260200190815260200160002054826110d490919063ffffffff16565b6000928352602083815260408085206001600160a01b038e1686529091529092209190915550600101610882565b50866001600160a01b0316886001600160a01b0316336001600160a01b03167f4a39dc06d4c0dbc64b70af90fd698a233a518aa5d07e595d983b8c0526c8f7fb898989896040518080602001806020018381038352878782818152602001925060200280828437600083820152601f01601f19169091018481038352858152602090810191508690860280828437600083820152604051601f909101601f19169092018290039850909650505050505050a4610a73876001600160a01b03166110e7565b15610b1c57610b1c33898989898080602002602001604051908101604052809392919081815260200183836020028082843760009201919091525050604080516020808d0282810182019093528c82529093508c92508b91829185019084908082843760009201919091525050604080516020601f8c018190048102820181019092528a815292508a91508990819084018382808284376000920191909152506110ed92505050565b5050505050505050565b6060838214610b3457600080fd5b604080518581526020808702820101909152606090858015610b60578160200160208202803883390190505b50905060005b85811015610bf057600080868684818110610b7d57fe5b9050602002013581526020019081526020016000206000888884818110610ba057fe5b905060200201356001600160a01b03166001600160a01b03166001600160a01b0316815260200190815260200160002054828281518110610bdd57fe5b6020908102919091010152600101610b66565b5095945050505050565b60008181526002602052604090205481906001600160a01b03163314610c1f57600080fd5b817f6bb7ff708619ba0610cba295a58592e0451dee2622938c8755667688daf3529b858560405180806020018281038252848482818152602001925080828437600083820152604051601f909101601f19169092018290039550909350505050a250505050565b3360008181526001602090815260408083206001600160a01b03871680855290835292819020805460ff1916861515908117909155815190815290519293927f17307eab39ab6107e8899845ad3d59bd9653f200f220920489ca2b5937696c31929181900390910190a35050565b60035481565b6002602052600090815260409020546001600160a01b031681565b60008581526002602052604090205485906001600160a01b03163314610d3a57600080fd5b60005b84811015610e4b576000868683818110610d5357fe5b905060200201356001600160a01b031690506000858584818110610d7357fe5b60008c8152602081815260408083206001600160a01b0389168452825290912054910292909201359250610daf9183915063ffffffff6110d416565b60008a8152602081815260408083206001600160a01b0387168085529083528184209490945580518d8152918201859052805133927fc3d58168c5ae7397731d063d5bbf3d657854427343f4c083240f7aacaa2d0f6292908290030190a4610e1f826001600160a01b03166110e7565b15610e4157610e413333848c85604051806020016040528060008152506112d9565b5050600101610d3d565b50505050505050565b6001600160a01b03918216600090815260016020908152604080832093909416825291909152205460ff1690565b6001600160a01b038516610ed5576040805162461bcd60e51b81526020600482015260156024820152742fba379036bab9ba103132903737b716bd32b9379760591b604482015290519081900360640190fd5b6001600160a01b038616331480610f1357506001600160a01b03861660009081526001602081815260408084203385529091529091205460ff161515145b610f4e5760405162461bcd60e51b815260040180806020018281038252602f81526020018061146f602f913960400191505060405180910390fd5b6000848152602081815260408083206001600160a01b038a168452909152902054610f7f908463ffffffff6110c216565b6000858152602081815260408083206001600160a01b038b81168552925280832093909355871681522054610fb59084906110d4565b6000858152602081815260408083206001600160a01b03808b16808652918452938290209490945580518881529182018790528051928a169233927fc3d58168c5ae7397731d063d5bbf3d657854427343f4c083240f7aacaa2d0f6292908290030190a461102b856001600160a01b03166110e7565b1561107457611074338787878787878080601f0160208091040260200160405190810160405280939291908181526020018383808284376000920191909152506112d992505050565b505050505050565b60006001600160e01b031982166301ffc9a760e01b14806110ad57506001600160e01b03198216636cdb3d1360e11b145b156110ba5750600161077e565b506000919050565b6000828211156110ce57fe5b50900390565b818101828110156110e157fe5b92915050565b3b151590565b63bc197c8160e01b6001600160e01b031916846001600160a01b031663bc197c8188888787876040518663ffffffff1660e01b815260040180866001600160a01b03166001600160a01b03168152602001856001600160a01b03166001600160a01b03168152602001806020018060200180602001848103845287818151815260200191508051906020019060200280838360005b8381101561119a578181015183820152602001611182565b50505050905001848103835286818151815260200191508051906020019060200280838360005b838110156111d95781810151838201526020016111c1565b50505050905001848103825285818151815260200191508051906020019080838360005b838110156112155781810151838201526020016111fd565b50505050905090810190601f1680156112425780820380516001836020036101000a031916815260200191505b5098505050505050505050602060405180830381600087803b15801561126757600080fd5b505af115801561127b573d6000803e3d6000fd5b505050506040513d602081101561129157600080fd5b50516001600160e01b031916146110745760405162461bcd60e51b815260040180806020018281038252603e81526020018061149e603e913960400191505060405180910390fd5b63f23a6e6160e01b6001600160e01b031916846001600160a01b031663f23a6e6188888787876040518663ffffffff1660e01b815260040180866001600160a01b03166001600160a01b03168152602001856001600160a01b03166001600160a01b0316815260200184815260200183815260200180602001828103825283818151815260200191508051906020019080838360005b8381101561138757818101518382015260200161136f565b50505050905090810190601f1680156113b45780820380516001836020036101000a031916815260200191505b509650505050505050602060405180830381600087803b1580156113d757600080fd5b505af11580156113eb573d6000803e3d6000fd5b505050506040513d602081101561140157600080fd5b50516001600160e01b031916146110745760405162461bcd60e51b81526004018080602001828103825260398152602001806115056039913960400191505060405180910390fdfe64657374696e6174696f6e2061646472657373206d757374206265206e6f6e2d7a65726f2e4e656564206f70657261746f7220617070726f76616c20666f7220337264207061727479207472616e73666572732e636f6e74726163742072657475726e656420616e20756e6b6e6f776e2076616c75652066726f6d206f6e45524331313535426174636852656365697665645f69647320616e64205f76616c756573206172726179206c656e677468206d757374206d617463682e636f6e74726163742072657475726e656420616e20756e6b6e6f776e2076616c75652066726f6d206f6e455243313135355265636569766564a265627a7a723158203a2a50c2881c8c8e7e605ea273543fbfc4d4bdf2a3ba4814d03ebdf88be5ea4264736f6c63430005110032",
  "compiler": {
    "name": "solc",
    "version": "0.5.17+commit.d19bba13.Emscripten.clang",
    "optimizer": {
      "enabled": true,
      "runs": 200
    },
    "evmVersion": "petersburg"
  }
}