{
  "fileName": "ERC1155MockReceiver.sol",
  "contractName": "ERC1155MockReceiver",
  "source": "pragma solidity ^0.5.0;\n\nimport \"./Common.sol\";\nimport \"./IERC1155TokenReceiver.sol\";\n\n// Contract to test safe transfer behavior.\ncontract ERC1155MockReceiver is ERC1155TokenReceiver, CommonConstants {\n\n    // Keep values from last received contract.\n    bool public shouldReject;\n\n    bytes public lastData;\n    address public lastOperator;\n    address public lastFrom;\n    uint256 public lastId;\n    uint256 public lastValue;\n\n    function setShouldReject(bool _value) public {\n        shouldReject = _value;\n    }\n\n    function onERC1155Received(address _operator, address _from, uint256 _id, uint256 _value, bytes calldata _data) external returns(bytes4) {\n        lastOperator = _operator;\n        lastFrom = _from;\n        lastId = _id;\n        lastValue = _value;\n        lastData = _data;\n        if (shouldReject == true) {\n            revert(\"onERC1155Received: transfer not accepted\");\n        } else {\n            return ERC1155_ACCEPTED;\n        }\n    }\n\n    function onERC1155BatchReceived(address _operator, address _from, uint256[] calldata _ids, uint256[] calldata _values, bytes calldata _data) external returns(bytes4) {\n        lastOperator = _operator;\n        lastFrom = _from;\n        lastId = _ids[0];\n        lastValue = _values[0];\n        lastData = _data;\n        if (shouldReject == true) {\n            revert(\"onERC1155BatchReceived: transfer not accepted\");\n        } else {\n            return ERC1155_BATCH_ACCEPTED;\n        }\n    }\n\n    // ERC165 interface support\n    function supportsInterface(bytes4 interfaceID) external view returns (bool) {\n        return  interfaceID == 0x01ffc9a7 ||    // ERC165\n                interfaceID == 0x4e2312e0;      // ERC1155_ACCEPTED ^ ERC1155_BATCH_ACCEPTED;\n    }\n}\n",
  "sourcePath": "contracts/ERC1155MockReceiver.sol",
  "abi": [
    {
      "constant": true,
      "inputs": [],
      "name": "lastData",
      "outputs": [
        {
          "internalType": "bytes",
          "name": "",
          "type": "bytes"
        }
      ],
      "payable": false,
      "stateMutability": "view",
      "type": "function"
    },
    {
      "constant": true,
      "inputs": [],
      "name": "lastFrom",
      "outputs": [
        {
          "internalType": "address",
          "name": "",
          "type": "address"
        }
      ],
      "payable": false,
      "stateMutability": "view",
      "type": "function"
    },
    {
      "constant": true,
      "inputs": [],
      "name": "lastId",
      "outputs": [
        {
          "internalType": "uint256",
          "name": "",
          "type": "uint256"
        }
      ],
      "payable": false,
      "stateMutability": "view",
      "type": "function"
    },
    {
      "constant": true,
      "inputs": [],
      "name": "lastOperator",
      "outputs": [
        {
          "internalType": "address",
          "name": "",
          "type": "address"
        }
      ],
      "payable": false,
      "stateMutability": "view",
      "type": "function"
    },
    {
      "constant": true,
      "inputs": [],
      "name": "lastValue",
      "outputs": [
        {
          "internalType": "uint256",
          "name": "",
          "type": "uint256"
        }
      ],
      "payable": false,
      "stateMutability": "view",
      "type": "function"
    },
    {
      "constant": false,
      "inputs": [
        {
          "internalType": "address",
          "name": "_operator",
          "type": "address"
        },
        {
          "internalType": "address",
          "name": "_from",
          "type": "address"
        },
        {
          "internalType": "uint256[]",
          "name": "_ids",
          "type": "uint256[]"
        },
        {
          "internalType": "uint256[]",
          "name": "_values",
          "type": "uint256[]"
        },
        {
          "internalType": "bytes",
          "name": "_data",
          "type": "bytes"
        }
      ],
      "name": "onERC1155BatchReceived",
      "outputs": [
        {
          "internalType": "bytes4",
          "name": "",
          "type": "bytes4"
        }
      ],
      "payable": false,
      "stateMutability": "nonpayable",
      "type": "function"
    },
    {
      "constant": false,
      "inputs": [
        {
          "internalType": "address",
          "name": "_operator",
          "type": "address"
        },
        {
          "internalType": "address",
          "name": "_from",
          "type": "address"
        },
        {
          "internalType": "uint256",
          "name": "_id",
          "type": "uint256"
        },
        {
          "internalType": "uint256",
          "name": "_value",
          "type": "uint256"
        },
        {
          "internalType": "bytes",
          "name": "_data",
          "type": "bytes"
        }
      ],
      "name": "onERC1155Received",
      "outputs": [
        {
          "internalType": "bytes4",
          "name": "",
          "type": "bytes4"
        }
      ],
      "payable": false,
      "stateMutability": "nonpayable",
      "type": "function"
    },
    {
      "constant": false,
      "inputs": [
        {
          "internalType": "bool",
          "name": "_value",
          "type": "bool"
        }
      ],
      "name": "setShouldReject",
      "outputs": [],
      "payable": false,
      "stateMutability": "nonpayable",
      "type": "function"
    },
    {
      "constant": true,
      "inputs": [],
      "name": "shouldReject",
      "outputs": [
        {
          "internalType": "bool",
          "name": "",
          "type": "bool"
        }
      ],
      "payable": false,
      "stateMutability": "view",
      "type": "function"
    },
    {
      "constant": true,
      "inputs": [
        {
          "internalType": "bytes4",
          "name": "interfaceID",
          "type": "bytes4"
        }
      ],
      "name": "supportsInterface",
      "outputs": [
        {
          "internalType": "bool",
          "name": "",
          "type": "bool"
        }
      ],
      "payable": false,
      "stateMutability": "view",
      "type": "function"
    }
  ],
  "bytecode": "0x608060405234801561001057600080fd5b50610742806100206000396000f3fe608060405234801561001057600080fd5b506004361061009d5760003560e01c8063804433781161006657806380443378146101a0578063a175b638146101a8578063bc197c81146101c9578063c1292cc31461030d578063f23a6e61146103155761009d565b80626e75ec146100a257806301ffc9a71461011f5780631dbb93811461015a57806343183834146101625780636eb3cd491461017c575b600080fd5b6100aa6103a8565b6040805160208082528351818301528351919283929083019185019080838360005b838110156100e45781810151838201526020016100cc565b50505050905090810190601f1680156101115780820380516001836020036101000a031916815260200191505b509250505060405180910390f35b6101466004803603602081101561013557600080fd5b50356001600160e01b031916610435565b604080519115158252519081900360200190f35b61014661046c565b61016a610475565b60408051918252519081900360200190f35b61018461047b565b604080516001600160a01b039092168252519081900360200190f35b61018461048a565b6101c7600480360360208110156101be57600080fd5b50351515610499565b005b6102f0600480360360a08110156101df57600080fd5b6001600160a01b038235811692602081013590911691810190606081016040820135600160201b81111561021257600080fd5b82018360208201111561022457600080fd5b803590602001918460208302840111600160201b8311171561024557600080fd5b919390929091602081019035600160201b81111561026257600080fd5b82018360208201111561027457600080fd5b803590602001918460208302840111600160201b8311171561029557600080fd5b919390929091602081019035600160201b8111156102b257600080fd5b8201836020820111156102c457600080fd5b803590602001918460018302840111600160201b831117156102e557600080fd5b5090925090506104ac565b604080516001600160e01b03199092168252519081900360200190f35b61016a610574565b6102f0600480360360a081101561032b57600080fd5b6001600160a01b03823581169260208101359091169160408201359160608101359181019060a081016080820135600160201b81111561036a57600080fd5b82018360208201111561037c57600080fd5b803590602001918460018302840111600160201b8311171561039d57600080fd5b50909250905061057a565b60018054604080516020600284861615610100026000190190941693909304601f8101849004840282018401909252818152929183018282801561042d5780601f106104025761010080835404028352916020019161042d565b820191906000526020600020905b81548152906001019060200180831161041057829003601f168201915b505050505081565b60006301ffc9a760e01b6001600160e01b0319831614806104665750630271189760e51b6001600160e01b03198316145b92915050565b60005460ff1681565b60055481565b6002546001600160a01b031681565b6003546001600160a01b031681565b6000805460ff1916911515919091179055565b600280546001600160a01b03808b166001600160a01b03199283161790925560038054928a16929091169190911790556000868682816104e857fe5b60200291909101356004555084846000816104ff57fe5b6020029190910135600555506105176001848461061d565b5060005460ff1615156001141561055f5760405162461bcd60e51b815260040180806020018281038252602d8152602001806106b9602d913960400191505060405180910390fd5b5063bc197c8160e01b98975050505050505050565b60045481565b600280546001600160a01b038089166001600160a01b03199283161790925560038054928816929091169190911790556004849055600583905560006105c26001848461061d565b5060005460ff1615156001141561060a5760405162461bcd60e51b81526004018080602001828103825260288152602001806106e66028913960400191505060405180910390fd5b5063f23a6e6160e01b9695505050505050565b828054600181600116156101000203166002900490600052602060002090601f016020900481019282601f1061065e5782800160ff1982351617855561068b565b8280016001018555821561068b579182015b8281111561068b578235825591602001919060010190610670565b5061069792915061069b565b5090565b6106b591905b8082111561069757600081556001016106a1565b9056fe6f6e45524331313535426174636852656365697665643a207472616e73666572206e6f742061636365707465646f6e4552433131353552656365697665643a207472616e73666572206e6f74206163636570746564a265627a7a72315820dc793209761d4648031505006fd337dec66a6f8acc62d31bc0cdc4eb435f731364736f6c63430005110032",
  "compiler": {
    "name": "solc",
    "version": "0.5.17+commit.d19bba13.Emscripten.clang",
    "optimizer": {
      "enabled": true,
      "runs": 200
    },
    "evmVersion": "petersburg"
  }
}