{
  "fileName": "ERC1155MixedFungibleMintable.sol",
  "contractName": "ERC1155MixedFungibleMintable",
  "source": "pragma solidity ^0.5.0;\n\nimport \"./ERC1155MixedFungible.sol\";\n\n/**\n    @dev Mintable form of ERC1155\n    Shows how easy it is to mint new items\n*/\ncontract ERC1155MixedFungibleMintable is ERC1155MixedFungible {\n\n    uint256 nonce;\n    mapping (uint256 => address) public creators;\n    mapping (uint256 => uint256) public maxIndex;\n\n    modifier creatorOnly(uint256 _id) {\n        require(creators[_id] == msg.sender);\n        _;\n    }\n\n    // This function only creates the type.\n    function create(\n        string calldata _uri,\n        bool   _isNF)\n    external returns(uint256 _type) {\n\n        // Store the type in the upper 128 bits\n        _type = (++nonce << 128);\n\n        // Set a flag if this is an NFI.\n        if (_isNF)\n          _type = _type | TYPE_NF_BIT;\n\n        // This will allow restricted access to creators.\n        creators[_type] = msg.sender;\n\n        // emit a Transfer event with Create semantic to help with discovery.\n        emit TransferSingle(msg.sender, address(0x0), address(0x0), _type, 0);\n\n        if (bytes(_uri).length > 0)\n            emit URI(_uri, _type);\n    }\n\n    function mintNonFungible(uint256 _type, address[] calldata _to) external creatorOnly(_type) {\n\n        // No need to check this is a nf type rather than an id since\n        // creatorOnly() will only let a type pass through.\n        require(isNonFungible(_type));\n\n        // Index are 1-based.\n        uint256 index = maxIndex[_type] + 1;\n        maxIndex[_type] = _to.length.add(maxIndex[_type]);\n\n        for (uint256 i = 0; i < _to.length; ++i) {\n            address dst = _to[i];\n            uint256 id  = _type | index + i;\n\n            nfOwners[id] = dst;\n\n            // You could use base-type id to store NF type balances if you wish.\n            // balances[_type][dst] = quantity.add(balances[_type][dst]);\n\n            emit TransferSingle(msg.sender, address(0x0), dst, id, 1);\n\n            if (dst.isContract()) {\n                _doSafeTransferAcceptanceCheck(msg.sender, msg.sender, dst, id, 1, '');\n            }\n        }\n    }\n\n    function mintFungible(uint256 _id, address[] calldata _to, uint256[] calldata _quantities) external creatorOnly(_id) {\n\n        require(isFungible(_id));\n\n        for (uint256 i = 0; i < _to.length; ++i) {\n\n            address to = _to[i];\n            uint256 quantity = _quantities[i];\n\n            // Grant the items to the caller\n            balances[_id][to] = quantity.add(balances[_id][to]);\n\n            // Emit the Transfer/Mint event.\n            // the 0x0 source address implies a mint\n            // It will also provide the circulating supply info.\n            emit TransferSingle(msg.sender, address(0x0), to, _id, quantity);\n\n            if (to.isContract()) {\n                _doSafeTransferAcceptanceCheck(msg.sender, msg.sender, to, _id, quantity, '');\n            }\n        }\n    }\n}\n",
  "sourcePath": "contracts/ERC1155MixedFungibleMintable.sol",
  "abi": [
    {
      "anonymous": false,
      "inputs": [
        {
          "indexed": true,
          "internalType": "address",
          "name": "_owner",
          "type": "address"
        },
        {
          "indexed": true,
          "internalType": "address",
          "name": "_operator",
          "type": "address"
        },
        {
          "indexed": false,
          "internalType": "bool",
          "name": "_approved",
          "type": "bool"
        }
      ],
      "name": "ApprovalForAll",
      "type": "event"
    },
    {
      "anonymous": false,
      "inputs": [
        {
          "indexed": true,
          "internalType": "address",
          "name": "_operator",
          "type": "address"
        },
        {
          "indexed": true,
          "internalType": "address",
          "name": "_from",
          "type": "address"
        },
        {
          "indexed": true,
          "internalType": "address",
          "name": "_to",
          "type": "address"
        },
        {
          "indexed": false,
          "internalType": "uint256[]",
          "name": "_ids",
          "type": "uint256[]"
        },
        {
          "indexed": false,
          "internalType": "uint256[]",
          "name": "_values",
          "type": "uint256[]"
        }
      ],
      "name": "TransferBatch",
      "type": "event"
    },
    {
      "anonymous": false,
      "inputs": [
        {
          "indexed": true,
          "internalType": "address",
          "name": "_operator",
          "type": "address"
        },
        {
          "indexed": true,
          "internalType": "address",
          "name": "_from",
          "type": "address"
        },
        {
          "indexed": true,
          "internalType": "address",
          "name": "_to",
          "type": "address"
        },
        {
          "indexed": false,
          "internalType": "uint256",
          "name": "_id",
          "type": "uint256"
        },
        {
          "indexed": false,
          "internalType": "uint256",
          "name": "_value",
          "type": "uint256"
        }
      ],
      "name": "TransferSingle",
      "type": "event"
    },
    {
      "anonymous": false,
      "inputs": [
        {
          "indexed": false,
          "internalType": "string",
          "name": "_value",
          "type": "string"
        },
        {
          "indexed": true,
          "internalType": "uint256",
          "name": "_id",
          "type": "uint256"
        }
      ],
      "name": "URI",
      "type": "event"
    },
    {
      "constant": true,
      "inputs": [
        {
          "internalType": "address",
          "name": "_owner",
          "type": "address"
        },
        {
          "internalType": "uint256",
          "name": "_id",
          "type": "uint256"
        }
      ],
      "name": "balanceOf",
      "outputs": [
        {
          "internalType": "uint256",
          "name": "",
          "type": "uint256"
        }
      ],
      "payable": false,
      "stateMutability": "view",
      "type": "function"
    },
    {
      "constant": true,
      "inputs": [
        {
          "internalType": "address[]",
          "name": "_owners",
          "type": "address[]"
        },
        {
          "internalType": "uint256[]",
          "name": "_ids",
          "type": "uint256[]"
        }
      ],
      "name": "balanceOfBatch",
      "outputs": [
        {
          "internalType": "uint256[]",
          "name": "",
          "type": "uint256[]"
        }
      ],
      "payable": false,
      "stateMutability": "view",
      "type": "function"
    },
    {
      "constant": false,
      "inputs": [
        {
          "internalType": "string",
          "name": "_uri",
          "type": "string"
        },
        {
          "internalType": "bool",
          "name": "_isNF",
          "type": "bool"
        }
      ],
      "name": "create",
      "outputs": [
        {
          "internalType": "uint256",
          "name": "_type",
          "type": "uint256"
        }
      ],
      "payable": false,
      "stateMutability": "nonpayable",
      "type": "function"
    },
    {
      "constant": true,
      "inputs": [
        {
          "internalType": "uint256",
          "name": "",
          "type": "uint256"
        }
      ],
      "name": "creators",
      "outputs": [
        {
          "internalType": "address",
          "name": "",
          "type": "address"
        }
      ],
      "payable": false,
      "stateMutability": "view",
      "type": "function"
    },
    {
      "constant": true,
      "inputs": [
        {
          "internalType": "uint256",
          "name": "_id",
          "type": "uint256"
        }
      ],
      "name": "getNonFungibleBaseType",
      "outputs": [
        {
          "internalType": "uint256",
          "name": "",
          "type": "uint256"
        }
      ],
      "payable": false,
      "stateMutability": "pure",
      "type": "function"
    },
    {
      "constant": true,
      "inputs": [
        {
          "internalType": "uint256",
          "name": "_id",
          "type": "uint256"
        }
      ],
      "name": "getNonFungibleIndex",
      "outputs": [
        {
          "internalType": "uint256",
          "name": "",
          "type": "uint256"
        }
      ],
      "payable": false,
      "stateMutability": "pure",
      "type": "function"
    },
    {
      "constant": true,
      "inputs": [
        {
          "internalType": "address",
          "name": "_owner",
          "type": "address"
        },
        {
          "internalType": "address",
          "name": "_operator",
          "type": "address"
        }
      ],
      "name": "isApprovedForAll",
      "outputs": [
        {
          "internalType": "bool",
          "name": "",
          "type": "bool"
        }
      ],
      "payable": false,
      "stateMutability": "view",
      "type": "function"
    },
    {
      "constant": true,
      "inputs": [
        {
          "internalType": "uint256",
          "name": "_id",
          "type": "uint256"
        }
      ],
      "name": "isFungible",
      "outputs": [
        {
          "internalType": "bool",
          "name": "",
          "type": "bool"
        }
      ],
      "payable": false,
      "stateMutability": "pure",
      "type": "function"
    },
    {
      "constant": true,
      "inputs": [
        {
          "internalType": "uint256",
          "name": "_id",
          "type": "uint256"
        }
      ],
      "name": "isNonFungible",
      "outputs": [
        {
          "internalType": "bool",
          "name": "",
          "type": "bool"
        }
      ],
      "payable": false,
      "stateMutability": "pure",
      "type": "function"
    },
    {
      "constant": true,
      "inputs": [
        {
          "internalType": "uint256",
          "name": "_id",
          "type": "uint256"
        }
      ],
      "name": "isNonFungibleBaseType",
      "outputs": [
        {
          "internalType": "bool",
          "name": "",
          "type": "bool"
        }
      ],
      "payable": false,
      "stateMutability": "pure",
      "type": "function"
    },
    {
      "constant": true,
      "inputs": [
        {
          "internalType": "uint256",
          "name": "_id",
          "type": "uint256"
        }
      ],
      "name": "isNonFungibleItem",
      "outputs": [
        {
          "internalType": "bool",
          "name": "",
          "type": "bool"
        }
      ],
      "payable": false,
      "stateMutability": "pure",
      "type": "function"
    },
    {
      "constant": true,
      "inputs": [
        {
          "internalType": "uint256",
          "name": "",
          "type": "uint256"
        }
      ],
      "name": "maxIndex",
      "outputs": [
        {
          "internalType": "uint256",
          "name": "",
          "type": "uint256"
        }
      ],
      "payable": false,
      "stateMutability": "view",
      "type": "function"
    },
    {
      "constant": false,
      "inputs": [
        {
          "internalType": "uint256",
          "name": "_id",
          "type": "uint256"
        },
        {
          "internalType": "address[]",
          "name": "_to",
          "type": "address[]"
        },
        {
          "internalType": "uint256[]",
          "name": "_quantities",
          "type": "uint256[]"
        }
      ],
      "name": "mintFungible",
      "outputs": [],
      "payable": false,
      "stateMutability": "nonpayable",
      "type": "function"
    },
    {
      "constant": false,
      "inputs": [
        {
          "internalType": "uint256",
          "name": "_type",
          "type": "uint256"
        },
        {
          "internalType": "address[]",
          "name": "_to",
          "type": "address[]"
        }
      ],
      "name": "mintNonFungible",
      "outputs": [],
      "payable": false,
      "stateMutability": "nonpayable",
      "type": "function"
    },
    {
      "constant": true,
      "inputs": [
        {
          "internalType": "uint256",
          "name": "_id",
          "type": "uint256"
        }
      ],
      "name": "ownerOf",
      "outputs": [
        {
          "internalType": "address",
          "name": "",
          "type": "address"
        }
      ],
      "payable": false,
      "stateMutability": "view",
      "type": "function"
    },
    {
      "constant": false,
      "inputs": [
        {
          "internalType": "address",
          "name": "_from",
          "type": "address"
        },
        {
          "internalType": "address",
          "name": "_to",
          "type": "address"
        },
        {
          "internalType": "uint256[]",
          "name": "_ids",
          "type": "uint256[]"
        },
        {
          "internalType": "uint256[]",
          "name": "_values",
          "type": "uint256[]"
        },
        {
          "internalType": "bytes",
          "name": "_data",
          "type": "bytes"
        }
      ],
      "name": "safeBatchTransferFrom",
      "outputs": [],
      "payable": false,
      "stateMutability": "nonpayable",
      "type": "function"
    },
    {
      "constant": false,
      "inputs": [
        {
          "internalType": "address",
          "name": "_from",
          "type": "address"
        },
        {
          "internalType": "address",
          "name": "_to",
          "type": "address"
        },
        {
          "internalType": "uint256",
          "name": "_id",
          "type": "uint256"
        },
        {
          "internalType": "uint256",
          "name": "_value",
          "type": "uint256"
        },
        {
          "internalType": "bytes",
          "name": "_data",
          "type": "bytes"
        }
      ],
      "name": "safeTransferFrom",
      "outputs": [],
      "payable": false,
      "stateMutability": "nonpayable",
      "type": "function"
    },
    {
      "constant": false,
      "inputs": [
        {
          "internalType": "address",
          "name": "_operator",
          "type": "address"
        },
        {
          "internalType": "bool",
          "name": "_approved",
          "type": "bool"
        }
      ],
      "name": "setApprovalForAll",
      "outputs": [],
      "payable": false,
      "stateMutability": "nonpayable",
      "type": "function"
    },
    {
      "constant": true,
      "inputs": [
        {
          "internalType": "bytes4",
          "name": "_interfaceId",
          "type": "bytes4"
        }
      ],
      "name": "supportsInterface",
      "outputs": [
        {
          "internalType": "bool",
          "name": "",
          "type": "bool"
        }
      ],
      "payable": false,
      "stateMutability": "view",
      "type": "function"
    }
  ],
  "bytecode": "0x608060405234801561001057600080fd5b5061192d806100206000396000f3fe608060405234801561001057600080fd5b50600436106101205760003560e01c806378b27221116100ad578063cd53d08e11610071578063cd53d08e1461061f578063e44591f01461063c578063e985e9c514610659578063f242432a14610687578063f94190881461071a57610120565b806378b27221146104825780639cca1c6414610547578063a22cb46514610564578063adebf6f214610592578063cc10e401146105af57610120565b80634e1273f4116100f45780634e1273f4146102e45780635e81b958146103f25780636352211e1461040f5780636f969c2d146104485780637269a3271461046557610120565b8062fdd58e1461012557806301ffc9a71461016357806308d7d4691461019e5780632eb2c2d6146101bb575b600080fd5b6101516004803603604081101561013b57600080fd5b506001600160a01b03813516906020013561078f565b60408051918252519081900360200190f35b61018a6004803603602081101561017957600080fd5b50356001600160e01b0319166107fd565b604080519115158252519081900360200190f35b610151600480360360208110156101b457600080fd5b5035610844565b6102e2600480360360a08110156101d157600080fd5b6001600160a01b038235811692602081013590911691810190606081016040820135600160201b81111561020457600080fd5b82018360208201111561021657600080fd5b803590602001918460208302840111600160201b8311171561023757600080fd5b919390929091602081019035600160201b81111561025457600080fd5b82018360208201111561026657600080fd5b803590602001918460208302840111600160201b8311171561028757600080fd5b919390929091602081019035600160201b8111156102a457600080fd5b8201836020820111156102b657600080fd5b803590602001918460018302840111600160201b831117156102d757600080fd5b509092509050610856565b005b6103a2600480360360408110156102fa57600080fd5b810190602081018135600160201b81111561031457600080fd5b82018360208201111561032657600080fd5b803590602001918460208302840111600160201b8311171561034757600080fd5b919390929091602081019035600160201b81111561036457600080fd5b82018360208201111561037657600080fd5b803590602001918460208302840111600160201b8311171561039757600080fd5b509092509050610c6c565b60408051602080825283518183015283519192839290830191858101910280838360005b838110156103de5781810151838201526020016103c6565b505050509050019250505060405180910390f35b61018a6004803603602081101561040857600080fd5b5035610db7565b61042c6004803603602081101561042557600080fd5b5035610dd8565b604080516001600160a01b039092168252519081900360200190f35b6101516004803603602081101561045e57600080fd5b5035610df3565b61018a6004803603602081101561047b57600080fd5b5035610e09565b6102e26004803603606081101561049857600080fd5b81359190810190604081016020820135600160201b8111156104b957600080fd5b8201836020820111156104cb57600080fd5b803590602001918460208302840111600160201b831117156104ec57600080fd5b919390929091602081019035600160201b81111561050957600080fd5b82018360208201111561051b57600080fd5b803590602001918460208302840111600160201b8311171561053c57600080fd5b509092509050610e29565b6101516004803603602081101561055d57600080fd5b5035610f68565b6102e26004803603604081101561057a57600080fd5b506001600160a01b0381351690602001351515610f74565b61018a600480360360208110156105a857600080fd5b5035610fe2565b610151600480360360408110156105c557600080fd5b810190602081018135600160201b8111156105df57600080fd5b8201836020820111156105f157600080fd5b803590602001918460018302840111600160201b8311171561061257600080fd5b9193509150351515610fec565b61042c6004803603602081101561063557600080fd5b50356110c1565b61018a6004803603602081101561065257600080fd5b50356110dc565b61018a6004803603604081101561066f57600080fd5b506001600160a01b03813581169160200135166110e8565b6102e2600480360360a081101561069d57600080fd5b6001600160a01b03823581169260208101359091169160408201359160608101359181019060a081016080820135600160201b8111156106dc57600080fd5b8201836020820111156106ee57600080fd5b803590602001918460018302840111600160201b8311171561070f57600080fd5b509092509050611116565b6102e26004803603604081101561073057600080fd5b81359190810190604081016020820135600160201b81111561075157600080fd5b82018360208201111561076357600080fd5b803590602001918460208302840111600160201b8311171561078457600080fd5b509092509050611380565b600061079a82610db7565b156107d4576000828152600260205260409020546001600160a01b038481169116146107c75760006107ca565b60015b60ff1690506107f7565b506000818152602081815260408083206001600160a01b03861684529091529020545b92915050565b60006001600160e01b031982166301ffc9a760e01b148061082e57506001600160e01b03198216636cdb3d1360e11b145b1561083b5750600161083f565b5060005b919050565b60056020526000908152604090205481565b6001600160a01b0387166108b1576040805162461bcd60e51b815260206004820152601b60248201527f63616e6e6f742073656e6420746f207a65726f20616464726573730000000000604482015290519081900360640190fd5b848314610905576040805162461bcd60e51b815260206004820152601760248201527f4172726179206c656e677468206d757374206d61746368000000000000000000604482015290519081900360640190fd5b6001600160a01b03881633148061094357506001600160a01b03881660009081526001602081815260408084203385529091529091205460ff161515145b61097e5760405162461bcd60e51b815260040180806020018281038252602f815260200180611853602f913960400191505060405180910390fd5b60005b85811015610af557600087878381811061099757fe5b90506020020135905060008686848181106109ae57fe5b9050602002013590506109c0826110dc565b15610a17576000828152600260205260409020546001600160a01b038c81169116146109eb57600080fd5b600082815260026020526040902080546001600160a01b0319166001600160a01b038c16179055610aeb565b6000828152602081815260408083206001600160a01b038f168452909152902054610a48908263ffffffff6114b116565b60008084815260200190815260200160002060008d6001600160a01b03166001600160a01b0316815260200190815260200160002081905550610ac960008084815260200190815260200160002060008c6001600160a01b03166001600160a01b0316815260200190815260200160002054826114c390919063ffffffff16565b6000838152602081815260408083206001600160a01b038f1684529091529020555b5050600101610981565b50866001600160a01b0316886001600160a01b0316336001600160a01b03167f4a39dc06d4c0dbc64b70af90fd698a233a518aa5d07e595d983b8c0526c8f7fb898989896040518080602001806020018381038352878782818152602001925060200280828437600083820152601f01601f19169091018481038352858152602090810191508690860280828437600083820152604051601f909101601f19169092018290039850909650505050505050a4610bb9876001600160a01b03166114d0565b15610c6257610c6233898989898080602002602001604051908101604052809392919081815260200183836020028082843760009201919091525050604080516020808d0282810182019093528c82529093508c92508b91829185019084908082843760009201919091525050604080516020601f8c018190048102820181019092528a815292508a91508990819084018382808284376000920191909152506114d692505050565b5050505050505050565b6060838214610c7a57600080fd5b604080518581526020808702820101909152606090858015610ca6578160200160208202803883390190505b50905060005b85811015610dad576000858583818110610cc257fe5b905060200201359050610cd481610db7565b15610d3f57878783818110610ce557fe5b600084815260026020908152604090912054910292909201356001600160a01b039081169216919091149050610d1c576000610d1f565b60015b60ff16838381518110610d2e57fe5b602002602001018181525050610da4565b600081815260208190526040812090898985818110610d5a57fe5b905060200201356001600160a01b03166001600160a01b03166001600160a01b0316815260200190815260200160002054838381518110610d9757fe5b6020026020010181815250505b50600101610cac565b5095945050505050565b6000600160ff1b8083161480156107f75750506001600160801b0316151590565b6000908152600260205260409020546001600160a01b031690565b6fffffffffffffffffffffffffffffffff191690565b6000600160ff1b8083161480156107f75750506001600160801b03161590565b60008581526004602052604090205485906001600160a01b03163314610e4e57600080fd5b610e5786610fe2565b610e6057600080fd5b60005b84811015610f5f576000868683818110610e7957fe5b905060200201356001600160a01b031690506000858584818110610e9957fe5b60008c8152602081815260408083206001600160a01b0389168452825290912054910292909201359250610ed59183915063ffffffff6114c316565b60008a8152602081815260408083206001600160a01b0387168085529083528184209490945580518d81529182018590528051339260008051602061183383398151915292908290030190a4610f33826001600160a01b03166114d0565b15610f5557610f553333848c85604051806020016040528060008152506116c2565b5050600101610e63565b50505050505050565b6001600160801b031690565b3360008181526001602090815260408083206001600160a01b03871680855290835292819020805460ff1916861515908117909155815190815290519293927f17307eab39ab6107e8899845ad3d59bd9653f200f220920489ca2b5937696c31929181900390910190a35050565b600160ff1b161590565b600380546001019081905560801b811561100757600160ff1b175b600081815260046020908152604080832080546001600160a01b031916339081179091558151858152928301849052815184939192600080516020611833833981519152928290030190a482156110ba57807f6bb7ff708619ba0610cba295a58592e0451dee2622938c8755667688daf3529b858560405180806020018281038252848482818152602001925080828437600083820152604051601f909101601f19169092018290039550909350505050a25b9392505050565b6004602052600090815260409020546001600160a01b031681565b600160ff1b9081161490565b6001600160a01b03918216600090815260016020908152604080832093909416825291909152205460ff1690565b6001600160a01b038516611171576040805162461bcd60e51b815260206004820152601b60248201527f63616e6e6f742073656e6420746f207a65726f20616464726573730000000000604482015290519081900360640190fd5b6001600160a01b0386163314806111af57506001600160a01b03861660009081526001602081815260408084203385529091529091205460ff161515145b6111ea5760405162461bcd60e51b815260040180806020018281038252602f815260200180611853602f913960400191505060405180910390fd5b6111f3846110dc565b1561124a576000848152600260205260409020546001600160a01b0387811691161461121e57600080fd5b600084815260026020526040902080546001600160a01b0319166001600160a01b0387161790556112d2565b6000848152602081815260408083206001600160a01b038a16845290915290205461127b908463ffffffff6114b116565b6000858152602081815260408083206001600160a01b038b811685529252808320939093558716815220546112b090846114c3565b6000858152602081815260408083206001600160a01b038a1684529091529020555b846001600160a01b0316866001600160a01b0316336001600160a01b03166000805160206118338339815191528787604051808381526020018281526020019250505060405180910390a461132f856001600160a01b03166114d0565b1561137857611378338787878787878080601f0160208091040260200160405190810160405280939291908181526020018383808284376000920191909152506116c292505050565b505050505050565b60008381526004602052604090205483906001600160a01b031633146113a557600080fd5b6113ae846110dc565b6113b757600080fd5b60008481526005602052604090205460018101906113dc90849063ffffffff6114c316565b6000868152600560205260408120919091555b8381101561137857600085858381811061140557fe5b8486018a176000818152600260209081526040808320805495830297909701356001600160a01b03166001600160a01b031990951685179096558551838152600191810191909152855193965091948694509092339260008051602061183383398151915292908290030190a4611484826001600160a01b03166114d0565b156114a7576114a7333384846001604051806020016040528060008152506116c2565b50506001016113ef565b6000828211156114bd57fe5b50900390565b818101828110156107f757fe5b3b151590565b63bc197c8160e01b6001600160e01b031916846001600160a01b031663bc197c8188888787876040518663ffffffff1660e01b815260040180866001600160a01b03166001600160a01b03168152602001856001600160a01b03166001600160a01b03168152602001806020018060200180602001848103845287818151815260200191508051906020019060200280838360005b8381101561158357818101518382015260200161156b565b50505050905001848103835286818151815260200191508051906020019060200280838360005b838110156115c25781810151838201526020016115aa565b50505050905001848103825285818151815260200191508051906020019080838360005b838110156115fe5781810151838201526020016115e6565b50505050905090810190601f16801561162b5780820380516001836020036101000a031916815260200191505b5098505050505050505050602060405180830381600087803b15801561165057600080fd5b505af1158015611664573d6000803e3d6000fd5b505050506040513d602081101561167a57600080fd5b50516001600160e01b031916146113785760405162461bcd60e51b815260040180806020018281038252603e815260200180611882603e913960400191505060405180910390fd5b63f23a6e6160e01b6001600160e01b031916846001600160a01b031663f23a6e6188888787876040518663ffffffff1660e01b815260040180866001600160a01b03166001600160a01b03168152602001856001600160a01b03166001600160a01b0316815260200184815260200183815260200180602001828103825283818151815260200191508051906020019080838360005b83811015611770578181015183820152602001611758565b50505050905090810190601f16801561179d5780820380516001836020036101000a031916815260200191505b509650505050505050602060405180830381600087803b1580156117c057600080fd5b505af11580156117d4573d6000803e3d6000fd5b505050506040513d60208110156117ea57600080fd5b50516001600160e01b031916146113785760405162461bcd60e51b81526004018080602001828103825260398152602001806118c06039913960400191505060405180910390fdfec3d58168c5ae7397731d063d5bbf3d657854427343f4c083240f7aacaa2d0f624e656564206f70657261746f7220617070726f76616c20666f7220337264207061727479207472616e73666572732e636f6e74726163742072657475726e656420616e20756e6b6e6f776e2076616c75652066726f6d206f6e4552433131353542617463685265636569766564636f6e74726163742072657475726e656420616e20756e6b6e6f776e2076616c75652066726f6d206f6e455243313135355265636569766564a265627a7a72315820482348a79f23ce3cf559a1fc7084c57fe3cb351f671e91ea154ebef26ea3476464736f6c63430005110032",
  "compiler": {
    "name": "solc",
    "version": "0.5.17+commit.d19bba13.Emscripten.clang",
    "optimizer": {
      "enabled": true,
      "runs": 200
    },
    "evmVersion": "petersburg"
  }
}